{
  "contractName": "Round",
  "abi": [
    {
      "inputs": [
        {
          "internalType": "address",
          "name": "",
          "type": "address"
        }
      ],
      "name": "choices",
      "outputs": [
        {
          "internalType": "uint8",
          "name": "",
          "type": "uint8"
        }
      ],
      "stateMutability": "view",
      "type": "function"
    },
    {
      "inputs": [
        {
          "internalType": "uint8",
          "name": "opcion",
          "type": "uint8"
        }
      ],
      "name": "jugar",
      "outputs": [],
      "stateMutability": "nonpayable",
      "type": "function"
    },
    {
      "inputs": [
        {
          "internalType": "address",
          "name": "alice",
          "type": "address"
        },
        {
          "internalType": "address",
          "name": "bob",
          "type": "address"
        }
      ],
      "name": "evaluar",
      "outputs": [
        {
          "internalType": "address",
          "name": "",
          "type": "address"
        }
      ],
      "stateMutability": "view",
      "type": "function"
    }
  ],
  "bytecode": "0x608060405234801561001057600080fd5b506107e9806100206000396000f3fe608060405234801561001057600080fd5b50600436106100415760003560e01c8063410346b31461004657806373efe52c146100a45780639f13b1c5146100d5575b600080fd5b6100886004803603602081101561005c57600080fd5b81019080803573ffffffffffffffffffffffffffffffffffffffff169060200190929190505050610179565b604051808260ff1660ff16815260200191505060405180910390f35b6100d3600480360360208110156100ba57600080fd5b81019080803560ff169060200190929190505050610199565b005b610137600480360360408110156100eb57600080fd5b81019080803573ffffffffffffffffffffffffffffffffffffffff169060200190929190803573ffffffffffffffffffffffffffffffffffffffff169060200190929190505050610283565b604051808273ffffffffffffffffffffffffffffffffffffffff1673ffffffffffffffffffffffffffffffffffffffff16815260200191505060405180910390f35b60006020528060005260406000206000915054906101000a900460ff1681565b600060ff168160ff1614806101b45750600160ff168160ff16145b806101c55750600260ff168160ff16145b6101ce57600080fd5b60008060003373ffffffffffffffffffffffffffffffffffffffff1673ffffffffffffffffffffffffffffffffffffffff16815260200190815260200160002060009054906101000a900460ff1660ff161461022957600080fd5b806000803373ffffffffffffffffffffffffffffffffffffffff1673ffffffffffffffffffffffffffffffffffffffff16815260200190815260200160002060006101000a81548160ff021916908360ff16021790555050565b60008060008373ffffffffffffffffffffffffffffffffffffffff1673ffffffffffffffffffffffffffffffffffffffff16815260200190815260200160002060009054906101000a900460ff1660ff166000808573ffffffffffffffffffffffffffffffffffffffff1673ffffffffffffffffffffffffffffffffffffffff16815260200190815260200160002060009054906101000a900460ff1660ff16141561033257600090506107ad565b600060ff166000808573ffffffffffffffffffffffffffffffffffffffff1673ffffffffffffffffffffffffffffffffffffffff16815260200190815260200160002060009054906101000a900460ff1660ff161480156103e45750600160ff166000808473ffffffffffffffffffffffffffffffffffffffff1673ffffffffffffffffffffffffffffffffffffffff16815260200190815260200160002060009054906101000a900460ff1660ff16145b156103f1578190506107ad565b600060ff166000808473ffffffffffffffffffffffffffffffffffffffff1673ffffffffffffffffffffffffffffffffffffffff16815260200190815260200160002060009054906101000a900460ff1660ff161480156104a35750600160ff166000808573ffffffffffffffffffffffffffffffffffffffff1673ffffffffffffffffffffffffffffffffffffffff16815260200190815260200160002060009054906101000a900460ff1660ff16145b156104b0578290506107ad565b600160ff166000808573ffffffffffffffffffffffffffffffffffffffff1673ffffffffffffffffffffffffffffffffffffffff16815260200190815260200160002060009054906101000a900460ff1660ff161480156105625750600260ff166000808473ffffffffffffffffffffffffffffffffffffffff1673ffffffffffffffffffffffffffffffffffffffff16815260200190815260200160002060009054906101000a900460ff1660ff16145b1561056f578190506107ad565b600160ff166000808473ffffffffffffffffffffffffffffffffffffffff1673ffffffffffffffffffffffffffffffffffffffff16815260200190815260200160002060009054906101000a900460ff1660ff161480156106215750600260ff166000808573ffffffffffffffffffffffffffffffffffffffff1673ffffffffffffffffffffffffffffffffffffffff16815260200190815260200160002060009054906101000a900460ff1660ff16145b1561062e578290506107ad565b600260ff166000808573ffffffffffffffffffffffffffffffffffffffff1673ffffffffffffffffffffffffffffffffffffffff16815260200190815260200160002060009054906101000a900460ff1660ff161480156106e05750600060ff166000808473ffffffffffffffffffffffffffffffffffffffff1673ffffffffffffffffffffffffffffffffffffffff16815260200190815260200160002060009054906101000a900460ff1660ff16145b156106ed578190506107ad565b600260ff166000808473ffffffffffffffffffffffffffffffffffffffff1673ffffffffffffffffffffffffffffffffffffffff16815260200190815260200160002060009054906101000a900460ff1660ff1614801561079f5750600060ff166000808573ffffffffffffffffffffffffffffffffffffffff1673ffffffffffffffffffffffffffffffffffffffff16815260200190815260200160002060009054906101000a900460ff1660ff16145b156107ac578290506107ad565b5b9291505056fea26469706673582212205cc56fe91a2d23ce6dd4a8b69c8666b6479247a7d5d06f932549680a4bc9d77764736f6c63430006000033",
  "source": "pragma solidity ^0.6.0;\r\n\r\n//import \"@openzeppelin/contracts/token/ERC20/ERC20.sol\";\r\n\r\n\r\ncontract Round {\r\n\r\n    //variables definition\r\n    uint8 constant rock = 0;\r\n    uint8 constant paper = 1;\r\n    uint8 constant scissors = 2;\r\n\r\n    // armo un mapping para alojar lo que eligió cada jugador. Mapping for choices storage.\r\n    mapping(address => uint8) public choices;\r\n\r\n\r\n    function jugar(uint8 opcion) external {\r\n        //verify valid move\r\n        require(opcion == rock || opcion == paper || opcion == scissors);\r\n        //verify player still hasnt played\r\n        require(choices[msg.sender] == 0);\r\n        choices[msg.sender] = opcion;\r\n    \r\n    }\r\n\r\n    function evaluar(address alice, address bob) external view returns (address){\r\n       //evaluate draw\r\n       if (choices[alice] == choices[bob]) {\r\n           return address(0);\r\n       }\r\n\r\n       //the game\r\n\r\n       if (choices[alice] == rock && choices[bob] == paper) {\r\n           return bob;\r\n       } else if (choices[bob] == rock && choices[alice] == paper) {\r\n           return alice;\r\n       } else if (choices[alice] == paper && choices[bob] == scissors) {\r\n           return bob;\r\n       } else if (choices[bob] == paper && choices[alice] == scissors) {\r\n           return alice;\r\n       } else if (choices[alice] == scissors && choices[bob] == rock) {\r\n           return bob;\r\n       } else if (choices[bob] == scissors && choices[alice] == rock) {\r\n           return alice;\r\n       }\r\n\r\n    }\r\n\r\n\r\n\r\n\r\n}",
  "sourcePath": "D:\\CODECODE\\CosasSolidity\\RPS_Challenge_truffle\\contracts\\Game.sol",
  "compiler": {
    "name": "solc",
    "version": "0.6.0+commit.26b70077.Emscripten.clang"
  },
  "schemaVersion": "3.4.3",
  "updatedAt": "2021-11-12T22:19:24.762Z",
  "devdoc": {
    "methods": {}
  },
  "userdoc": {
    "methods": {}
  }
}