{
  "contractName": "RpsToken",
  "abi": [
    {
      "inputs": [
        {
          "internalType": "uint256",
          "name": "_initialSupply",
          "type": "uint256"
        }
      ],
      "stateMutability": "nonpayable",
      "type": "constructor"
    },
    {
      "anonymous": false,
      "inputs": [
        {
          "indexed": true,
          "internalType": "address",
          "name": "_owner",
          "type": "address"
        },
        {
          "indexed": true,
          "internalType": "address",
          "name": "_spender",
          "type": "address"
        },
        {
          "indexed": false,
          "internalType": "uint256",
          "name": "value",
          "type": "uint256"
        }
      ],
      "name": "Approve",
      "type": "event"
    },
    {
      "anonymous": false,
      "inputs": [
        {
          "indexed": true,
          "internalType": "address",
          "name": "_from",
          "type": "address"
        },
        {
          "indexed": true,
          "internalType": "address",
          "name": "_to",
          "type": "address"
        },
        {
          "indexed": false,
          "internalType": "uint256",
          "name": "_value",
          "type": "uint256"
        }
      ],
      "name": "Transfer",
      "type": "event"
    },
    {
      "inputs": [
        {
          "internalType": "address",
          "name": "",
          "type": "address"
        },
        {
          "internalType": "address",
          "name": "",
          "type": "address"
        }
      ],
      "name": "allowance",
      "outputs": [
        {
          "internalType": "uint256",
          "name": "",
          "type": "uint256"
        }
      ],
      "stateMutability": "view",
      "type": "function"
    },
    {
      "inputs": [
        {
          "internalType": "address",
          "name": "",
          "type": "address"
        }
      ],
      "name": "balanceOf",
      "outputs": [
        {
          "internalType": "uint256",
          "name": "",
          "type": "uint256"
        }
      ],
      "stateMutability": "view",
      "type": "function"
    },
    {
      "inputs": [],
      "name": "mensaje",
      "outputs": [
        {
          "internalType": "string",
          "name": "",
          "type": "string"
        }
      ],
      "stateMutability": "view",
      "type": "function"
    },
    {
      "inputs": [],
      "name": "name",
      "outputs": [
        {
          "internalType": "string",
          "name": "",
          "type": "string"
        }
      ],
      "stateMutability": "view",
      "type": "function"
    },
    {
      "inputs": [],
      "name": "owner",
      "outputs": [
        {
          "internalType": "address",
          "name": "",
          "type": "address"
        }
      ],
      "stateMutability": "view",
      "type": "function"
    },
    {
      "inputs": [],
      "name": "standard",
      "outputs": [
        {
          "internalType": "string",
          "name": "",
          "type": "string"
        }
      ],
      "stateMutability": "view",
      "type": "function"
    },
    {
      "inputs": [],
      "name": "symbol",
      "outputs": [
        {
          "internalType": "string",
          "name": "",
          "type": "string"
        }
      ],
      "stateMutability": "view",
      "type": "function"
    },
    {
      "inputs": [],
      "name": "totalSupply",
      "outputs": [
        {
          "internalType": "uint256",
          "name": "",
          "type": "uint256"
        }
      ],
      "stateMutability": "view",
      "type": "function"
    },
    {
      "inputs": [
        {
          "internalType": "address",
          "name": "_to",
          "type": "address"
        },
        {
          "internalType": "uint256",
          "name": "_value",
          "type": "uint256"
        }
      ],
      "name": "transfer",
      "outputs": [
        {
          "internalType": "bool",
          "name": "success",
          "type": "bool"
        }
      ],
      "stateMutability": "nonpayable",
      "type": "function"
    },
    {
      "inputs": [
        {
          "internalType": "address",
          "name": "_spender",
          "type": "address"
        },
        {
          "internalType": "uint256",
          "name": "_value",
          "type": "uint256"
        }
      ],
      "name": "approve",
      "outputs": [
        {
          "internalType": "bool",
          "name": "success",
          "type": "bool"
        }
      ],
      "stateMutability": "nonpayable",
      "type": "function"
    },
    {
      "inputs": [
        {
          "internalType": "address",
          "name": "_from",
          "type": "address"
        },
        {
          "internalType": "address",
          "name": "_to",
          "type": "address"
        },
        {
          "internalType": "uint256",
          "name": "_value",
          "type": "uint256"
        }
      ],
      "name": "transferFrom",
      "outputs": [
        {
          "internalType": "bool",
          "name": "success",
          "type": "bool"
        }
      ],
      "stateMutability": "nonpayable",
      "type": "function"
    },
    {
      "inputs": [
        {
          "internalType": "string",
          "name": "chino",
          "type": "string"
        }
      ],
      "name": "decirHola",
      "outputs": [],
      "stateMutability": "nonpayable",
      "type": "function"
    }
  ],
  "bytecode": "0x60806040523480156200001157600080fd5b50604051620011f2380380620011f2833981810160405260208110156200003757600080fd5b8101908080519060200190929190505050806000819055506040518060400160405280600981526020017f52505320546f6b656e0000000000000000000000000000000000000000000000815250600190805190602001906200009c9291906200020d565b506040518060400160405280600381526020017f525053000000000000000000000000000000000000000000000000000000000081525060029080519060200190620000ea9291906200020d565b506040518060400160405280601881526020017f52505320546f6b656e2076312e30206e6963307374726970000000000000000081525060039080519060200190620001389291906200020d565b50600054600660003373ffffffffffffffffffffffffffffffffffffffff1673ffffffffffffffffffffffffffffffffffffffff1681526020019081526020016000208190555033600460006101000a81548173ffffffffffffffffffffffffffffffffffffffff021916908373ffffffffffffffffffffffffffffffffffffffff160217905550600054600560003373ffffffffffffffffffffffffffffffffffffffff1673ffffffffffffffffffffffffffffffffffffffff1681526020019081526020016000208190555050620002bc565b828054600181600116156101000203166002900490600052602060002090601f016020900481019282601f106200025057805160ff191683800117855562000281565b8280016001018555821562000281579182015b828111156200028057825182559160200191906001019062000263565b5b50905062000290919062000294565b5090565b620002b991905b80821115620002b55760008160009055506001016200029b565b5090565b90565b610f2680620002cc6000396000f3fe608060405234801561001057600080fd5b50600436106100b45760003560e01c806370a082311161007157806370a082311461034c5780638da5cb5b146103a457806395d89b41146103ee578063a48a6a6714610471578063a9059cbb1461052c578063dd62ed3e14610592576100b4565b806306fdde03146100b9578063095ea7b31461013c57806318160ddd146101a257806323b872dd146101c05780632fdbbb9b146102465780635a3b7e42146102c9575b600080fd5b6100c161060a565b6040518080602001828103825283818151815260200191508051906020019080838360005b838110156101015780820151818401526020810190506100e6565b50505050905090810190601f16801561012e5780820380516001836020036101000a031916815260200191505b509250505060405180910390f35b6101886004803603604081101561015257600080fd5b81019080803573ffffffffffffffffffffffffffffffffffffffff169060200190929190803590602001909291905050506106a8565b604051808215151515815260200191505060405180910390f35b6101aa61079a565b6040518082815260200191505060405180910390f35b61022c600480360360608110156101d657600080fd5b81019080803573ffffffffffffffffffffffffffffffffffffffff169060200190929190803573ffffffffffffffffffffffffffffffffffffffff169060200190929190803590602001909291905050506107a0565b604051808215151515815260200191505060405180910390f35b61024e610a0b565b6040518080602001828103825283818151815260200191508051906020019080838360005b8381101561028e578082015181840152602081019050610273565b50505050905090810190601f1680156102bb5780820380516001836020036101000a031916815260200191505b509250505060405180910390f35b6102d1610aa9565b6040518080602001828103825283818151815260200191508051906020019080838360005b838110156103115780820151818401526020810190506102f6565b50505050905090810190601f16801561033e5780820380516001836020036101000a031916815260200191505b509250505060405180910390f35b61038e6004803603602081101561036257600080fd5b81019080803573ffffffffffffffffffffffffffffffffffffffff169060200190929190505050610b47565b6040518082815260200191505060405180910390f35b6103ac610b5f565b604051808273ffffffffffffffffffffffffffffffffffffffff1673ffffffffffffffffffffffffffffffffffffffff16815260200191505060405180910390f35b6103f6610b85565b6040518080602001828103825283818151815260200191508051906020019080838360005b8381101561043657808201518184015260208101905061041b565b50505050905090810190601f1680156104635780820380516001836020036101000a031916815260200191505b509250505060405180910390f35b61052a6004803603602081101561048757600080fd5b81019080803590602001906401000000008111156104a457600080fd5b8201836020820111156104b657600080fd5b803590602001918460018302840111640100000000831117156104d857600080fd5b91908080601f016020809104026020016040519081016040528093929190818152602001838380828437600081840152601f19601f820116905080830192505050505050509192919290505050610c23565b005b6105786004803603604081101561054257600080fd5b81019080803573ffffffffffffffffffffffffffffffffffffffff16906020019092919080359060200190929190505050610ccf565b604051808215151515815260200191505060405180910390f35b6105f4600480360360408110156105a857600080fd5b81019080803573ffffffffffffffffffffffffffffffffffffffff169060200190929190803573ffffffffffffffffffffffffffffffffffffffff169060200190929190505050610e26565b6040518082815260200191505060405180910390f35b60018054600181600116156101000203166002900480601f0160208091040260200160405190810160405280929190818152602001828054600181600116156101000203166002900480156106a05780601f10610675576101008083540402835291602001916106a0565b820191906000526020600020905b81548152906001019060200180831161068357829003601f168201915b505050505081565b600081600760003373ffffffffffffffffffffffffffffffffffffffff1673ffffffffffffffffffffffffffffffffffffffff16815260200190815260200160002060008573ffffffffffffffffffffffffffffffffffffffff1673ffffffffffffffffffffffffffffffffffffffff168152602001908152602001600020819055508273ffffffffffffffffffffffffffffffffffffffff163373ffffffffffffffffffffffffffffffffffffffff167f6e11fb1b7f119e3f2fa29896ef5fdf8b8a2d0d4df6fe90ba8668e7d8b2ffa25e846040518082815260200191505060405180910390a36001905092915050565b60005481565b6000600660008573ffffffffffffffffffffffffffffffffffffffff1673ffffffffffffffffffffffffffffffffffffffff168152602001908152602001600020548211156107ee57600080fd5b600760008573ffffffffffffffffffffffffffffffffffffffff1673ffffffffffffffffffffffffffffffffffffffff16815260200190815260200160002060003373ffffffffffffffffffffffffffffffffffffffff1673ffffffffffffffffffffffffffffffffffffffff1681526020019081526020016000205482111561087757600080fd5b81600660008673ffffffffffffffffffffffffffffffffffffffff1673ffffffffffffffffffffffffffffffffffffffff1681526020019081526020016000206000828254039250508190555081600660008573ffffffffffffffffffffffffffffffffffffffff1673ffffffffffffffffffffffffffffffffffffffff1681526020019081526020016000206000828254019250508190555081600760008673ffffffffffffffffffffffffffffffffffffffff1673ffffffffffffffffffffffffffffffffffffffff16815260200190815260200160002060003373ffffffffffffffffffffffffffffffffffffffff1673ffffffffffffffffffffffffffffffffffffffff168152602001908152602001600020600082825403925050819055508273ffffffffffffffffffffffffffffffffffffffff168473ffffffffffffffffffffffffffffffffffffffff167fddf252ad1be2c89b69c2b068fc378daa952ba7f163c4a11628f55a4df523b3ef846040518082815260200191505060405180910390a3600190509392505050565b60088054600181600116156101000203166002900480601f016020809104026020016040519081016040528092919081815260200182805460018160011615610100020316600290048015610aa15780601f10610a7657610100808354040283529160200191610aa1565b820191906000526020600020905b815481529060010190602001808311610a8457829003601f168201915b505050505081565b60038054600181600116156101000203166002900480601f016020809104026020016040519081016040528092919081815260200182805460018160011615610100020316600290048015610b3f5780601f10610b1457610100808354040283529160200191610b3f565b820191906000526020600020905b815481529060010190602001808311610b2257829003601f168201915b505050505081565b60066020528060005260406000206000915090505481565b600460009054906101000a900473ffffffffffffffffffffffffffffffffffffffff1681565b60028054600181600116156101000203166002900480601f016020809104026020016040519081016040528092919081815260200182805460018160011615610100020316600290048015610c1b5780601f10610bf057610100808354040283529160200191610c1b565b820191906000526020600020905b815481529060010190602001808311610bfe57829003601f168201915b505050505081565b8060405160200180807f686f6c6120626f2000000000000000000000000000000000000000000000000081525060080182805190602001908083835b60208310610c825780518252602082019150602081019050602083039250610c5f565b6001836020036101000a03801982511681845116808217855250505050505090500191505060405160208183030381529060405260089080519060200190610ccb929190610e4b565b5050565b600081600660003373ffffffffffffffffffffffffffffffffffffffff1673ffffffffffffffffffffffffffffffffffffffff168152602001908152602001600020541015610d1d57600080fd5b81600660003373ffffffffffffffffffffffffffffffffffffffff1673ffffffffffffffffffffffffffffffffffffffff1681526020019081526020016000206000828254039250508190555081600660008573ffffffffffffffffffffffffffffffffffffffff1673ffffffffffffffffffffffffffffffffffffffff168152602001908152602001600020600082825401925050819055508273ffffffffffffffffffffffffffffffffffffffff163373ffffffffffffffffffffffffffffffffffffffff167fddf252ad1be2c89b69c2b068fc378daa952ba7f163c4a11628f55a4df523b3ef846040518082815260200191505060405180910390a36001905092915050565b6007602052816000526040600020602052806000526040600020600091509150505481565b828054600181600116156101000203166002900490600052602060002090601f016020900481019282601f10610e8c57805160ff1916838001178555610eba565b82800160010185558215610eba579182015b82811115610eb9578251825591602001919060010190610e9e565b5b509050610ec79190610ecb565b5090565b610eed91905b80821115610ee9576000816000905550600101610ed1565b5090565b9056fea26469706673582212207fd7b0c3944d71b94f740404aa4343542de7cdf91aca3ace00f15b12bbea18f764736f6c63430006000033",
  "source": "pragma solidity ^0.6.0;\r\n\r\ncontract RpsToken {\r\n\r\n    //name\r\n    //symbol\r\n\r\n    uint256 public totalSupply;\r\n    string public name;\r\n    string public symbol;\r\n    string public standard;\r\n    address public owner;\r\n    mapping(address => uint) balances;\r\n    mapping(address => uint256) public balanceOf;\r\n    //allowance, aqui se almacena lo autorizado en Approve\r\n    mapping(address => mapping(address => uint256)) public allowance;\r\n    string public mensaje;\r\n\r\n    event Transfer(\r\n        address indexed _from,\r\n        address indexed _to,\r\n        uint256 _value\r\n    );\r\n \r\n    event Approve(\r\n        address indexed _owner,\r\n        address indexed _spender,\r\n        uint256 value\r\n    );\r\n\r\n    constructor (uint256 _initialSupply) public {\r\n         totalSupply = _initialSupply;\r\n         name = \"RPS Token\";\r\n         symbol = \"RPS\";\r\n         standard = \"RPS Token v1.0 nic0strip\";\r\n         // allocate the initialSupply\r\n         balanceOf[msg.sender] = totalSupply;\r\n         owner = msg.sender;\r\n         balances[msg.sender] = totalSupply;\r\n    }\r\n\r\n    //function transfer\r\n    function transfer(address _to, uint256 _value) public returns (bool success) {\r\n        //excepción si la cuenta no tiene suficiente\r\n        require(balanceOf[msg.sender]>= _value);\r\n        balanceOf[msg.sender] -= _value;\r\n        balanceOf[_to] += _value;\r\n\r\n        \r\n        //transfer Event\r\n        emit Transfer(msg.sender, _to, _value);\r\n        //retorno boolean\r\n        return true;\r\n    }\r\n\r\n    //approve\r\n    function approve(address _spender, uint256 _value) public returns (bool success){\r\n        //allowance\r\n        allowance[msg.sender][_spender] = _value;\r\n        //approve event\r\n        emit Approve(msg.sender, _spender, _value);\r\n        return true;\r\n    }\r\n\r\n    // TransferFrom\r\n    function transferFrom(address _from, address _to, uint256 _value) public returns (bool success) {\r\n        require( _value <= balanceOf[_from] );\r\n        require(_value <= allowance[_from][msg.sender]);\r\n        \r\n        //cambio el balance de las cuentas\r\n        balanceOf[_from] -= _value;\r\n        balanceOf[_to] += _value;\r\n\r\n        //actualizo el allowance\r\n        allowance[_from][msg.sender] -= _value;\r\n\r\n        //emito el evento Transfer\r\n        emit Transfer(_from, _to, _value);\r\n        \r\n        //returno el true\r\n        return true;\r\n\r\n    }\r\n\r\n    \r\n\r\n// para prueba de nico en la consola de hardhat\r\n    function decirHola(string memory chino) public {\r\n        \r\n       mensaje = string(abi.encodePacked(\"hola bo \", chino));\r\n\r\n    }\r\n\r\n}",
  "sourcePath": "D:\\CODECODE\\CosasSolidity\\RPS_Challenge_truffle\\contracts\\RpsToken.sol",
  "compiler": {
    "name": "solc",
    "version": "0.6.0+commit.26b70077.Emscripten.clang"
  },
  "schemaVersion": "3.4.3",
  "updatedAt": "2021-11-12T22:19:24.887Z",
  "devdoc": {
    "methods": {}
  },
  "userdoc": {
    "methods": {}
  }
}